000000001MICKEY              100000101002
000000002MINNIE              150000204008
000000003MAXWELL             400000509003
